{
  "_format": "hh-sol-artifact-1",
  "contractName": "SSBSTest",
  "sourceName": "contracts/SSBSTest.sol",
  "abi": [
    {
      "inputs": [
        {
          "internalType": "address",
          "name": "creator",
          "type": "address"
        }
      ],
      "stateMutability": "nonpayable",
      "type": "constructor"
    },
    {
      "anonymous": false,
      "inputs": [
        {
          "indexed": true,
          "internalType": "address",
          "name": "_caller",
          "type": "address"
        }
      ],
      "name": "LaunchFailure",
      "type": "event"
    },
    {
      "anonymous": false,
      "inputs": [
        {
          "indexed": true,
          "internalType": "address",
          "name": "previousOwner",
          "type": "address"
        },
        {
          "indexed": true,
          "internalType": "address",
          "name": "newOwner",
          "type": "address"
        }
      ],
      "name": "OwnershipTransferred",
      "type": "event"
    },
    {
      "anonymous": false,
      "inputs": [
        {
          "indexed": true,
          "internalType": "address",
          "name": "_receiver",
          "type": "address"
        },
        {
          "indexed": true,
          "internalType": "uint256",
          "name": "_tokenID",
          "type": "uint256"
        }
      ],
      "name": "SatelliteBurned",
      "type": "event"
    },
    {
      "anonymous": false,
      "inputs": [
        {
          "indexed": true,
          "internalType": "address",
          "name": "_receiver",
          "type": "address"
        },
        {
          "indexed": true,
          "internalType": "uint256",
          "name": "_tokenID",
          "type": "uint256"
        }
      ],
      "name": "SatelliteLaunched",
      "type": "event"
    },
    {
      "inputs": [
        {
          "internalType": "uint256",
          "name": "tokenId",
          "type": "uint256"
        }
      ],
      "name": "burn",
      "outputs": [],
      "stateMutability": "nonpayable",
      "type": "function"
    },
    {
      "inputs": [
        {
          "internalType": "address",
          "name": "receiver",
          "type": "address"
        },
        {
          "internalType": "string",
          "name": "uri",
          "type": "string"
        }
      ],
      "name": "launch",
      "outputs": [],
      "stateMutability": "nonpayable",
      "type": "function"
    },
    {
      "inputs": [],
      "name": "owner",
      "outputs": [
        {
          "internalType": "address",
          "name": "",
          "type": "address"
        }
      ],
      "stateMutability": "view",
      "type": "function"
    },
    {
      "inputs": [],
      "name": "renounceOwnership",
      "outputs": [],
      "stateMutability": "nonpayable",
      "type": "function"
    },
    {
      "inputs": [
        {
          "internalType": "string",
          "name": "uri",
          "type": "string"
        },
        {
          "internalType": "bool",
          "name": "identical",
          "type": "bool"
        }
      ],
      "name": "setBaseTokenURI",
      "outputs": [],
      "stateMutability": "nonpayable",
      "type": "function"
    },
    {
      "inputs": [
        {
          "internalType": "uint256[]",
          "name": "tokenIds",
          "type": "uint256[]"
        },
        {
          "internalType": "string[]",
          "name": "uris",
          "type": "string[]"
        }
      ],
      "name": "setTokenURI",
      "outputs": [],
      "stateMutability": "nonpayable",
      "type": "function"
    },
    {
      "inputs": [
        {
          "internalType": "string",
          "name": "prefix",
          "type": "string"
        }
      ],
      "name": "setTokenURIPrefix",
      "outputs": [],
      "stateMutability": "nonpayable",
      "type": "function"
    },
    {
      "inputs": [
        {
          "internalType": "bytes4",
          "name": "interfaceId",
          "type": "bytes4"
        }
      ],
      "name": "supportsInterface",
      "outputs": [
        {
          "internalType": "bool",
          "name": "",
          "type": "bool"
        }
      ],
      "stateMutability": "view",
      "type": "function"
    },
    {
      "inputs": [],
      "name": "tokenCount",
      "outputs": [
        {
          "internalType": "uint256",
          "name": "",
          "type": "uint256"
        }
      ],
      "stateMutability": "view",
      "type": "function"
    },
    {
      "inputs": [],
      "name": "tokenLimit",
      "outputs": [
        {
          "internalType": "uint256",
          "name": "",
          "type": "uint256"
        }
      ],
      "stateMutability": "view",
      "type": "function"
    },
    {
      "inputs": [
        {
          "internalType": "address",
          "name": "newOwner",
          "type": "address"
        }
      ],
      "name": "transferOwnership",
      "outputs": [],
      "stateMutability": "nonpayable",
      "type": "function"
    }
  ],
  "bytecode": "0x608060405260006002556003805534801561001957600080fd5b50604051610c72380380610c72833981016040819052610038916100b6565b61004133610066565b600180546001600160a01b0319166001600160a01b03929092169190911790556100e6565b600080546001600160a01b038381166001600160a01b0319831681178455604051919092169283917f8be0079c531659141344cd1fd0a4f28419497f9722a3daafe3b4186f6b6457e09190a35050565b6000602082840312156100c857600080fd5b81516001600160a01b03811681146100df57600080fd5b9392505050565b610b7d806100f56000396000f3fe608060405234801561001057600080fd5b50600436106100995760003560e01c806301ffc9a71461009e57806342966c68146100c657806356c7627e146100db57806365aba757146100f2578063715018a6146101055780638da5cb5b1461010d57806399e0dd7c1461012d5780639f181b5e14610140578063aafb2d4414610149578063e54269331461015c578063f2fde38b1461016f575b600080fd5b6100b16100ac366004610864565b610182565b60405190151581526020015b60405180910390f35b6100d96100d436600461092a565b6101b9565b005b6100e460035481565b6040519081526020016100bd565b6100d96101003660046107a7565b610264565b6100d96103c0565b6101156103fb565b6040516001600160a01b0390911681526020016100bd565b6100d961013b36600461088e565b61040a565b6100e460025481565b6100d96101573660046107f9565b6104a8565b6100d961016a3660046108cf565b61054c565b6100d961017d366004610785565b6105ed565b60006001600160e01b03198216637005caad60e01b14806101b357506301ffc9a760e01b6001600160e01b03198316145b92915050565b604051630852cd8d60e31b81526004810182905273140c5aee63e81a7627ae3f054d6a1b25fbba0c8d906342966c6890602401600060405180830381600087803b15801561020657600080fd5b505af115801561021a573d6000803e3d6000fd5b50506002805492509050600061022f83610aff565b9091555050604051819033907ff1d299d3fb4a79f175e73054c7b53249cf9dab4435851eebda81e8e31bd37c2e90600090a350565b3361026d6103fb565b6001600160a01b03161461029c5760405162461bcd60e51b815260040161029390610aca565b60405180910390fd5b600354600254101561038757600280549060006102b883610b16565b9091555050604051631fc5c3eb60e31b815273140c5aee63e81a7627ae3f054d6a1b25fbba0c8d9063fe2e1f58906102f890869086908690600401610985565b602060405180830381600087803b15801561031257600080fd5b505af1158015610326573d6000803e3d6000fd5b505050506040513d601f19601f8201168201806040525081019061034a9190610943565b506002546040516001600160a01b038516907f9738856da2c57ea3c20d617eadd6f41c3c028b6c8ddd73f00ac0753dd719e83090600090a3505050565b6040516001600160a01b038416907f46c46a7dfc4deaa7e9ce6db540171a6710fa8c02df58714e5b9d63765f1f333b90600090a2505050565b336103c96103fb565b6001600160a01b0316146103ef5760405162461bcd60e51b815260040161029390610aca565b6103f9600061068d565b565b6000546001600160a01b031690565b336104136103fb565b6001600160a01b0316146104395760405162461bcd60e51b815260040161029390610aca565b60405163066d1e9d60e41b815273140c5aee63e81a7627ae3f054d6a1b25fbba0c8d906366d1e9d0906104729085908590600401610a88565b600060405180830381600087803b15801561048c57600080fd5b505af11580156104a0573d6000803e3d6000fd5b505050505050565b336104b16103fb565b6001600160a01b0316146104d75760405162461bcd60e51b815260040161029390610aca565b6040516361e5bc6b60e01b815273140c5aee63e81a7627ae3f054d6a1b25fbba0c8d906361e5bc6b906105149087908790879087906004016109b3565b600060405180830381600087803b15801561052e57600080fd5b505af1158015610542573d6000803e3d6000fd5b5050505050505050565b336105556103fb565b6001600160a01b03161461057b5760405162461bcd60e51b815260040161029390610aca565b60405163105b981960e31b815273140c5aee63e81a7627ae3f054d6a1b25fbba0c8d906382dcc0c8906105b690869086908690600401610aa4565b600060405180830381600087803b1580156105d057600080fd5b505af11580156105e4573d6000803e3d6000fd5b50505050505050565b336105f66103fb565b6001600160a01b03161461061c5760405162461bcd60e51b815260040161029390610aca565b6001600160a01b0381166106815760405162461bcd60e51b815260206004820152602660248201527f4f776e61626c653a206e6577206f776e657220697320746865207a65726f206160448201526564647265737360d01b6064820152608401610293565b61068a8161068d565b50565b600080546001600160a01b038381166001600160a01b0319831681178455604051919092169283917f8be0079c531659141344cd1fd0a4f28419497f9722a3daafe3b4186f6b6457e09190a35050565b80356001600160a01b03811681146106f457600080fd5b919050565b60008083601f84011261070b57600080fd5b5081356001600160401b0381111561072257600080fd5b6020830191508360208260051b850101111561073d57600080fd5b9250929050565b60008083601f84011261075657600080fd5b5081356001600160401b0381111561076d57600080fd5b60208301915083602082850101111561073d57600080fd5b60006020828403121561079757600080fd5b6107a0826106dd565b9392505050565b6000806000604084860312156107bc57600080fd5b6107c5846106dd565b925060208401356001600160401b038111156107e057600080fd5b6107ec86828701610744565b9497909650939450505050565b6000806000806040858703121561080f57600080fd5b84356001600160401b038082111561082657600080fd5b610832888389016106f9565b9096509450602087013591508082111561084b57600080fd5b50610858878288016106f9565b95989497509550505050565b60006020828403121561087657600080fd5b81356001600160e01b0319811681146107a057600080fd5b600080602083850312156108a157600080fd5b82356001600160401b038111156108b757600080fd5b6108c385828601610744565b90969095509350505050565b6000806000604084860312156108e457600080fd5b83356001600160401b038111156108fa57600080fd5b61090686828701610744565b9094509250506020840135801515811461091f57600080fd5b809150509250925092565b60006020828403121561093c57600080fd5b5035919050565b60006020828403121561095557600080fd5b5051919050565b81835281816020850137506000828201602090810191909152601f909101601f19169091010190565b6001600160a01b03841681526040602082018190526000906109aa908301848661095c565b95945050505050565b6040808252810184905260006001600160fb1b038511156109d357600080fd5b8460051b8087606085013782018281036060908101602080860191909152908201859052600585901b8201608090810191600091840188835b89811015610a7757868603607f190183528135368c9003601e19018112610a31578586fd5b8b0180356001600160401b03811115610a48578687fd5b8036038d1315610a56578687fd5b610a63888288850161095c565b975050509183019190830190600101610a0c565b50939b9a5050505050505050505050565b602081526000610a9c60208301848661095c565b949350505050565b604081526000610ab860408301858761095c565b90508215156020830152949350505050565b6020808252818101527f4f776e61626c653a2063616c6c6572206973206e6f7420746865206f776e6572604082015260600190565b600081610b0e57610b0e610b31565b506000190190565b6000600019821415610b2a57610b2a610b31565b5060010190565b634e487b7160e01b600052601160045260246000fdfea2646970667358221220ba5143ebb6d917a86c469713aa391b7a853b903027e861eb9627a5205a32e35164736f6c63430008060033",
  "linkReferences": {},
  "deployedLinkReferences": {}
}