{
  "_format": "hh-sol-artifact-1",
  "contractName": "Trifeckta",
  "sourceName": "contracts/Trifeckta.sol",
  "abi": [
    {
      "inputs": [],
      "stateMutability": "nonpayable",
      "type": "constructor"
    },
    {
      "anonymous": false,
      "inputs": [
        {
          "indexed": true,
          "internalType": "address",
          "name": "account",
          "type": "address"
        },
        {
          "indexed": true,
          "internalType": "address",
          "name": "sender",
          "type": "address"
        }
      ],
      "name": "AdminApproved",
      "type": "event"
    },
    {
      "anonymous": false,
      "inputs": [
        {
          "indexed": true,
          "internalType": "address",
          "name": "account",
          "type": "address"
        },
        {
          "indexed": true,
          "internalType": "address",
          "name": "sender",
          "type": "address"
        }
      ],
      "name": "AdminRevoked",
      "type": "event"
    },
    {
      "anonymous": false,
      "inputs": [
        {
          "indexed": true,
          "internalType": "address",
          "name": "owner",
          "type": "address"
        },
        {
          "indexed": true,
          "internalType": "address",
          "name": "approved",
          "type": "address"
        },
        {
          "indexed": true,
          "internalType": "uint256",
          "name": "tokenId",
          "type": "uint256"
        }
      ],
      "name": "Approval",
      "type": "event"
    },
    {
      "anonymous": false,
      "inputs": [
        {
          "indexed": true,
          "internalType": "address",
          "name": "owner",
          "type": "address"
        },
        {
          "indexed": true,
          "internalType": "address",
          "name": "operator",
          "type": "address"
        },
        {
          "indexed": false,
          "internalType": "bool",
          "name": "approved",
          "type": "bool"
        }
      ],
      "name": "ApprovalForAll",
      "type": "event"
    },
    {
      "anonymous": false,
      "inputs": [
        {
          "indexed": false,
          "internalType": "address payable[]",
          "name": "receivers",
          "type": "address[]"
        },
        {
          "indexed": false,
          "internalType": "uint256[]",
          "name": "basisPoints",
          "type": "uint256[]"
        }
      ],
      "name": "DefaultRoyaltiesUpdated",
      "type": "event"
    },
    {
      "anonymous": false,
      "inputs": [
        {
          "indexed": true,
          "internalType": "address",
          "name": "extension",
          "type": "address"
        },
        {
          "indexed": false,
          "internalType": "bool",
          "name": "enabled",
          "type": "bool"
        }
      ],
      "name": "ExtensionApproveTransferUpdated",
      "type": "event"
    },
    {
      "anonymous": false,
      "inputs": [
        {
          "indexed": true,
          "internalType": "address",
          "name": "extension",
          "type": "address"
        },
        {
          "indexed": true,
          "internalType": "address",
          "name": "sender",
          "type": "address"
        }
      ],
      "name": "ExtensionBlacklisted",
      "type": "event"
    },
    {
      "anonymous": false,
      "inputs": [
        {
          "indexed": true,
          "internalType": "address",
          "name": "extension",
          "type": "address"
        },
        {
          "indexed": true,
          "internalType": "address",
          "name": "sender",
          "type": "address"
        }
      ],
      "name": "ExtensionRegistered",
      "type": "event"
    },
    {
      "anonymous": false,
      "inputs": [
        {
          "indexed": true,
          "internalType": "address",
          "name": "extension",
          "type": "address"
        },
        {
          "indexed": false,
          "internalType": "address payable[]",
          "name": "receivers",
          "type": "address[]"
        },
        {
          "indexed": false,
          "internalType": "uint256[]",
          "name": "basisPoints",
          "type": "uint256[]"
        }
      ],
      "name": "ExtensionRoyaltiesUpdated",
      "type": "event"
    },
    {
      "anonymous": false,
      "inputs": [
        {
          "indexed": true,
          "internalType": "address",
          "name": "extension",
          "type": "address"
        },
        {
          "indexed": true,
          "internalType": "address",
          "name": "sender",
          "type": "address"
        }
      ],
      "name": "ExtensionUnregistered",
      "type": "event"
    },
    {
      "anonymous": false,
      "inputs": [
        {
          "indexed": true,
          "internalType": "address",
          "name": "extension",
          "type": "address"
        },
        {
          "indexed": true,
          "internalType": "address",
          "name": "permissions",
          "type": "address"
        },
        {
          "indexed": true,
          "internalType": "address",
          "name": "sender",
          "type": "address"
        }
      ],
      "name": "MintPermissionsUpdated",
      "type": "event"
    },
    {
      "anonymous": false,
      "inputs": [
        {
          "indexed": true,
          "internalType": "address",
          "name": "previousOwner",
          "type": "address"
        },
        {
          "indexed": true,
          "internalType": "address",
          "name": "newOwner",
          "type": "address"
        }
      ],
      "name": "OwnershipTransferred",
      "type": "event"
    },
    {
      "anonymous": false,
      "inputs": [
        {
          "indexed": false,
          "internalType": "address",
          "name": "account",
          "type": "address"
        }
      ],
      "name": "Paused",
      "type": "event"
    },
    {
      "anonymous": false,
      "inputs": [
        {
          "indexed": true,
          "internalType": "uint256",
          "name": "tokenId",
          "type": "uint256"
        },
        {
          "indexed": false,
          "internalType": "address payable[]",
          "name": "receivers",
          "type": "address[]"
        },
        {
          "indexed": false,
          "internalType": "uint256[]",
          "name": "basisPoints",
          "type": "uint256[]"
        }
      ],
      "name": "RoyaltiesUpdated",
      "type": "event"
    },
    {
      "anonymous": false,
      "inputs": [
        {
          "indexed": true,
          "internalType": "address",
          "name": "from",
          "type": "address"
        },
        {
          "indexed": true,
          "internalType": "address",
          "name": "to",
          "type": "address"
        },
        {
          "indexed": true,
          "internalType": "uint256",
          "name": "tokenId",
          "type": "uint256"
        }
      ],
      "name": "Transfer",
      "type": "event"
    },
    {
      "anonymous": false,
      "inputs": [
        {
          "indexed": false,
          "internalType": "address",
          "name": "account",
          "type": "address"
        }
      ],
      "name": "Unpaused",
      "type": "event"
    },
    {
      "inputs": [
        {
          "internalType": "address",
          "name": "to",
          "type": "address"
        },
        {
          "internalType": "uint256",
          "name": "tokenId",
          "type": "uint256"
        }
      ],
      "name": "approve",
      "outputs": [],
      "stateMutability": "nonpayable",
      "type": "function"
    },
    {
      "inputs": [
        {
          "internalType": "address",
          "name": "admin",
          "type": "address"
        }
      ],
      "name": "approveAdmin",
      "outputs": [],
      "stateMutability": "nonpayable",
      "type": "function"
    },
    {
      "inputs": [
        {
          "internalType": "address",
          "name": "owner",
          "type": "address"
        }
      ],
      "name": "balanceOf",
      "outputs": [
        {
          "internalType": "uint256",
          "name": "",
          "type": "uint256"
        }
      ],
      "stateMutability": "view",
      "type": "function"
    },
    {
      "inputs": [
        {
          "internalType": "address",
          "name": "extension",
          "type": "address"
        }
      ],
      "name": "blacklistExtension",
      "outputs": [],
      "stateMutability": "nonpayable",
      "type": "function"
    },
    {
      "inputs": [
        {
          "internalType": "uint256",
          "name": "tokenId",
          "type": "uint256"
        }
      ],
      "name": "burn",
      "outputs": [],
      "stateMutability": "nonpayable",
      "type": "function"
    },
    {
      "inputs": [],
      "name": "getAdmins",
      "outputs": [
        {
          "internalType": "address[]",
          "name": "admins",
          "type": "address[]"
        }
      ],
      "stateMutability": "view",
      "type": "function"
    },
    {
      "inputs": [
        {
          "internalType": "uint256",
          "name": "tokenId",
          "type": "uint256"
        }
      ],
      "name": "getApproved",
      "outputs": [
        {
          "internalType": "address",
          "name": "",
          "type": "address"
        }
      ],
      "stateMutability": "view",
      "type": "function"
    },
    {
      "inputs": [],
      "name": "getExtensions",
      "outputs": [
        {
          "internalType": "address[]",
          "name": "extensions",
          "type": "address[]"
        }
      ],
      "stateMutability": "view",
      "type": "function"
    },
    {
      "inputs": [
        {
          "internalType": "uint256",
          "name": "tokenId",
          "type": "uint256"
        }
      ],
      "name": "getFeeBps",
      "outputs": [
        {
          "internalType": "uint256[]",
          "name": "",
          "type": "uint256[]"
        }
      ],
      "stateMutability": "view",
      "type": "function"
    },
    {
      "inputs": [
        {
          "internalType": "uint256",
          "name": "tokenId",
          "type": "uint256"
        }
      ],
      "name": "getFeeRecipients",
      "outputs": [
        {
          "internalType": "address payable[]",
          "name": "",
          "type": "address[]"
        }
      ],
      "stateMutability": "view",
      "type": "function"
    },
    {
      "inputs": [
        {
          "internalType": "uint256",
          "name": "tokenId",
          "type": "uint256"
        }
      ],
      "name": "getFees",
      "outputs": [
        {
          "internalType": "address payable[]",
          "name": "",
          "type": "address[]"
        },
        {
          "internalType": "uint256[]",
          "name": "",
          "type": "uint256[]"
        }
      ],
      "stateMutability": "view",
      "type": "function"
    },
    {
      "inputs": [
        {
          "internalType": "uint256",
          "name": "tokenId",
          "type": "uint256"
        }
      ],
      "name": "getRoyalties",
      "outputs": [
        {
          "internalType": "address payable[]",
          "name": "",
          "type": "address[]"
        },
        {
          "internalType": "uint256[]",
          "name": "",
          "type": "uint256[]"
        }
      ],
      "stateMutability": "view",
      "type": "function"
    },
    {
      "inputs": [
        {
          "internalType": "address",
          "name": "admin",
          "type": "address"
        }
      ],
      "name": "isAdmin",
      "outputs": [
        {
          "internalType": "bool",
          "name": "",
          "type": "bool"
        }
      ],
      "stateMutability": "view",
      "type": "function"
    },
    {
      "inputs": [
        {
          "internalType": "address",
          "name": "owner",
          "type": "address"
        },
        {
          "internalType": "address",
          "name": "operator",
          "type": "address"
        }
      ],
      "name": "isApprovedForAll",
      "outputs": [
        {
          "internalType": "bool",
          "name": "",
          "type": "bool"
        }
      ],
      "stateMutability": "view",
      "type": "function"
    },
    {
      "inputs": [
        {
          "internalType": "address",
          "name": "to",
          "type": "address"
        }
      ],
      "name": "mintBase",
      "outputs": [
        {
          "internalType": "uint256",
          "name": "",
          "type": "uint256"
        }
      ],
      "stateMutability": "nonpayable",
      "type": "function"
    },
    {
      "inputs": [
        {
          "internalType": "address",
          "name": "to",
          "type": "address"
        },
        {
          "internalType": "string",
          "name": "uri",
          "type": "string"
        }
      ],
      "name": "mintBase",
      "outputs": [
        {
          "internalType": "uint256",
          "name": "",
          "type": "uint256"
        }
      ],
      "stateMutability": "nonpayable",
      "type": "function"
    },
    {
      "inputs": [
        {
          "internalType": "address",
          "name": "to",
          "type": "address"
        },
        {
          "internalType": "string[]",
          "name": "uris",
          "type": "string[]"
        }
      ],
      "name": "mintBaseBatch",
      "outputs": [
        {
          "internalType": "uint256[]",
          "name": "tokenIds",
          "type": "uint256[]"
        }
      ],
      "stateMutability": "nonpayable",
      "type": "function"
    },
    {
      "inputs": [
        {
          "internalType": "address",
          "name": "to",
          "type": "address"
        },
        {
          "internalType": "uint16",
          "name": "count",
          "type": "uint16"
        }
      ],
      "name": "mintBaseBatch",
      "outputs": [
        {
          "internalType": "uint256[]",
          "name": "tokenIds",
          "type": "uint256[]"
        }
      ],
      "stateMutability": "nonpayable",
      "type": "function"
    },
    {
      "inputs": [
        {
          "internalType": "address",
          "name": "to",
          "type": "address"
        }
      ],
      "name": "mintExtension",
      "outputs": [
        {
          "internalType": "uint256",
          "name": "",
          "type": "uint256"
        }
      ],
      "stateMutability": "nonpayable",
      "type": "function"
    },
    {
      "inputs": [
        {
          "internalType": "address",
          "name": "to",
          "type": "address"
        },
        {
          "internalType": "string",
          "name": "uri",
          "type": "string"
        }
      ],
      "name": "mintExtension",
      "outputs": [
        {
          "internalType": "uint256",
          "name": "",
          "type": "uint256"
        }
      ],
      "stateMutability": "nonpayable",
      "type": "function"
    },
    {
      "inputs": [
        {
          "internalType": "address",
          "name": "to",
          "type": "address"
        },
        {
          "internalType": "string[]",
          "name": "uris",
          "type": "string[]"
        }
      ],
      "name": "mintExtensionBatch",
      "outputs": [
        {
          "internalType": "uint256[]",
          "name": "tokenIds",
          "type": "uint256[]"
        }
      ],
      "stateMutability": "nonpayable",
      "type": "function"
    },
    {
      "inputs": [
        {
          "internalType": "address",
          "name": "to",
          "type": "address"
        },
        {
          "internalType": "uint16",
          "name": "count",
          "type": "uint16"
        }
      ],
      "name": "mintExtensionBatch",
      "outputs": [
        {
          "internalType": "uint256[]",
          "name": "tokenIds",
          "type": "uint256[]"
        }
      ],
      "stateMutability": "nonpayable",
      "type": "function"
    },
    {
      "inputs": [],
      "name": "name",
      "outputs": [
        {
          "internalType": "string",
          "name": "",
          "type": "string"
        }
      ],
      "stateMutability": "view",
      "type": "function"
    },
    {
      "inputs": [],
      "name": "owner",
      "outputs": [
        {
          "internalType": "address",
          "name": "",
          "type": "address"
        }
      ],
      "stateMutability": "view",
      "type": "function"
    },
    {
      "inputs": [
        {
          "internalType": "uint256",
          "name": "tokenId",
          "type": "uint256"
        }
      ],
      "name": "ownerOf",
      "outputs": [
        {
          "internalType": "address",
          "name": "",
          "type": "address"
        }
      ],
      "stateMutability": "view",
      "type": "function"
    },
    {
      "inputs": [],
      "name": "pause",
      "outputs": [],
      "stateMutability": "nonpayable",
      "type": "function"
    },
    {
      "inputs": [],
      "name": "paused",
      "outputs": [
        {
          "internalType": "bool",
          "name": "",
          "type": "bool"
        }
      ],
      "stateMutability": "view",
      "type": "function"
    },
    {
      "inputs": [
        {
          "internalType": "address",
          "name": "extension",
          "type": "address"
        },
        {
          "internalType": "string",
          "name": "baseURI",
          "type": "string"
        }
      ],
      "name": "registerExtension",
      "outputs": [],
      "stateMutability": "nonpayable",
      "type": "function"
    },
    {
      "inputs": [
        {
          "internalType": "address",
          "name": "extension",
          "type": "address"
        },
        {
          "internalType": "string",
          "name": "baseURI",
          "type": "string"
        },
        {
          "internalType": "bool",
          "name": "baseURIIdentical",
          "type": "bool"
        }
      ],
      "name": "registerExtension",
      "outputs": [],
      "stateMutability": "nonpayable",
      "type": "function"
    },
    {
      "inputs": [],
      "name": "renounceOwnership",
      "outputs": [],
      "stateMutability": "nonpayable",
      "type": "function"
    },
    {
      "inputs": [
        {
          "internalType": "address",
          "name": "admin",
          "type": "address"
        }
      ],
      "name": "revokeAdmin",
      "outputs": [],
      "stateMutability": "nonpayable",
      "type": "function"
    },
    {
      "inputs": [
        {
          "internalType": "uint256",
          "name": "tokenId",
          "type": "uint256"
        },
        {
          "internalType": "uint256",
          "name": "value",
          "type": "uint256"
        },
        {
          "internalType": "bytes",
          "name": "",
          "type": "bytes"
        }
      ],
      "name": "royaltyInfo",
      "outputs": [
        {
          "internalType": "address",
          "name": "",
          "type": "address"
        },
        {
          "internalType": "uint256",
          "name": "",
          "type": "uint256"
        },
        {
          "internalType": "bytes",
          "name": "",
          "type": "bytes"
        }
      ],
      "stateMutability": "view",
      "type": "function"
    },
    {
      "inputs": [
        {
          "internalType": "address",
          "name": "from",
          "type": "address"
        },
        {
          "internalType": "address",
          "name": "to",
          "type": "address"
        },
        {
          "internalType": "uint256",
          "name": "tokenId",
          "type": "uint256"
        }
      ],
      "name": "safeTransferFrom",
      "outputs": [],
      "stateMutability": "nonpayable",
      "type": "function"
    },
    {
      "inputs": [
        {
          "internalType": "address",
          "name": "from",
          "type": "address"
        },
        {
          "internalType": "address",
          "name": "to",
          "type": "address"
        },
        {
          "internalType": "uint256",
          "name": "tokenId",
          "type": "uint256"
        },
        {
          "internalType": "bytes",
          "name": "_data",
          "type": "bytes"
        }
      ],
      "name": "safeTransferFrom",
      "outputs": [],
      "stateMutability": "nonpayable",
      "type": "function"
    },
    {
      "inputs": [
        {
          "internalType": "address",
          "name": "operator",
          "type": "address"
        },
        {
          "internalType": "bool",
          "name": "approved",
          "type": "bool"
        }
      ],
      "name": "setApprovalForAll",
      "outputs": [],
      "stateMutability": "nonpayable",
      "type": "function"
    },
    {
      "inputs": [
        {
          "internalType": "bool",
          "name": "enabled",
          "type": "bool"
        }
      ],
      "name": "setApproveTransferExtension",
      "outputs": [],
      "stateMutability": "nonpayable",
      "type": "function"
    },
    {
      "inputs": [
        {
          "internalType": "string",
          "name": "uri",
          "type": "string"
        }
      ],
      "name": "setBaseTokenURI",
      "outputs": [],
      "stateMutability": "nonpayable",
      "type": "function"
    },
    {
      "inputs": [
        {
          "internalType": "string",
          "name": "uri",
          "type": "string"
        }
      ],
      "name": "setBaseTokenURIExtension",
      "outputs": [],
      "stateMutability": "nonpayable",
      "type": "function"
    },
    {
      "inputs": [
        {
          "internalType": "string",
          "name": "uri",
          "type": "string"
        },
        {
          "internalType": "bool",
          "name": "identical",
          "type": "bool"
        }
      ],
      "name": "setBaseTokenURIExtension",
      "outputs": [],
      "stateMutability": "nonpayable",
      "type": "function"
    },
    {
      "inputs": [
        {
          "internalType": "address",
          "name": "extension",
          "type": "address"
        },
        {
          "internalType": "address",
          "name": "permissions",
          "type": "address"
        }
      ],
      "name": "setMintPermissions",
      "outputs": [],
      "stateMutability": "nonpayable",
      "type": "function"
    },
    {
      "inputs": [
        {
          "internalType": "uint256",
          "name": "tokenId",
          "type": "uint256"
        },
        {
          "internalType": "address payable[]",
          "name": "receivers",
          "type": "address[]"
        },
        {
          "internalType": "uint256[]",
          "name": "basisPoints",
          "type": "uint256[]"
        }
      ],
      "name": "setRoyalties",
      "outputs": [],
      "stateMutability": "nonpayable",
      "type": "function"
    },
    {
      "inputs": [
        {
          "internalType": "address payable[]",
          "name": "receivers",
          "type": "address[]"
        },
        {
          "internalType": "uint256[]",
          "name": "basisPoints",
          "type": "uint256[]"
        }
      ],
      "name": "setRoyalties",
      "outputs": [],
      "stateMutability": "nonpayable",
      "type": "function"
    },
    {
      "inputs": [
        {
          "internalType": "address",
          "name": "extension",
          "type": "address"
        },
        {
          "internalType": "address payable[]",
          "name": "receivers",
          "type": "address[]"
        },
        {
          "internalType": "uint256[]",
          "name": "basisPoints",
          "type": "uint256[]"
        }
      ],
      "name": "setRoyaltiesExtension",
      "outputs": [],
      "stateMutability": "nonpayable",
      "type": "function"
    },
    {
      "inputs": [
        {
          "internalType": "uint256",
          "name": "tokenId",
          "type": "uint256"
        },
        {
          "internalType": "string",
          "name": "uri",
          "type": "string"
        }
      ],
      "name": "setTokenURI",
      "outputs": [],
      "stateMutability": "nonpayable",
      "type": "function"
    },
    {
      "inputs": [
        {
          "internalType": "uint256[]",
          "name": "tokenIds",
          "type": "uint256[]"
        },
        {
          "internalType": "string[]",
          "name": "uris",
          "type": "string[]"
        }
      ],
      "name": "setTokenURI",
      "outputs": [],
      "stateMutability": "nonpayable",
      "type": "function"
    },
    {
      "inputs": [
        {
          "internalType": "uint256[]",
          "name": "tokenIds",
          "type": "uint256[]"
        },
        {
          "internalType": "string[]",
          "name": "uris",
          "type": "string[]"
        }
      ],
      "name": "setTokenURIExtension",
      "outputs": [],
      "stateMutability": "nonpayable",
      "type": "function"
    },
    {
      "inputs": [
        {
          "internalType": "uint256",
          "name": "tokenId",
          "type": "uint256"
        },
        {
          "internalType": "string",
          "name": "uri",
          "type": "string"
        }
      ],
      "name": "setTokenURIExtension",
      "outputs": [],
      "stateMutability": "nonpayable",
      "type": "function"
    },
    {
      "inputs": [
        {
          "internalType": "string",
          "name": "prefix",
          "type": "string"
        }
      ],
      "name": "setTokenURIPrefix",
      "outputs": [],
      "stateMutability": "nonpayable",
      "type": "function"
    },
    {
      "inputs": [
        {
          "internalType": "string",
          "name": "prefix",
          "type": "string"
        }
      ],
      "name": "setTokenURIPrefixExtension",
      "outputs": [],
      "stateMutability": "nonpayable",
      "type": "function"
    },
    {
      "inputs": [
        {
          "internalType": "bytes4",
          "name": "interfaceId",
          "type": "bytes4"
        }
      ],
      "name": "supportsInterface",
      "outputs": [
        {
          "internalType": "bool",
          "name": "",
          "type": "bool"
        }
      ],
      "stateMutability": "view",
      "type": "function"
    },
    {
      "inputs": [],
      "name": "symbol",
      "outputs": [
        {
          "internalType": "string",
          "name": "",
          "type": "string"
        }
      ],
      "stateMutability": "view",
      "type": "function"
    },
    {
      "inputs": [
        {
          "internalType": "uint256",
          "name": "tokenId",
          "type": "uint256"
        }
      ],
      "name": "tokenExtension",
      "outputs": [
        {
          "internalType": "address",
          "name": "",
          "type": "address"
        }
      ],
      "stateMutability": "view",
      "type": "function"
    },
    {
      "inputs": [
        {
          "internalType": "uint256",
          "name": "tokenId",
          "type": "uint256"
        }
      ],
      "name": "tokenURI",
      "outputs": [
        {
          "internalType": "string",
          "name": "",
          "type": "string"
        }
      ],
      "stateMutability": "view",
      "type": "function"
    },
    {
      "inputs": [
        {
          "internalType": "address",
          "name": "from",
          "type": "address"
        },
        {
          "internalType": "address",
          "name": "to",
          "type": "address"
        },
        {
          "internalType": "uint256",
          "name": "tokenId",
          "type": "uint256"
        }
      ],
      "name": "transferFrom",
      "outputs": [],
      "stateMutability": "nonpayable",
      "type": "function"
    },
    {
      "inputs": [
        {
          "internalType": "address",
          "name": "newOwner",
          "type": "address"
        }
      ],
      "name": "transferOwnership",
      "outputs": [],
      "stateMutability": "nonpayable",
      "type": "function"
    },
    {
      "inputs": [],
      "name": "unpause",
      "outputs": [],
      "stateMutability": "nonpayable",
      "type": "function"
    },
    {
      "inputs": [
        {
          "internalType": "address",
          "name": "extension",
          "type": "address"
        }
      ],
      "name": "unregisterExtension",
      "outputs": [],
      "stateMutability": "nonpayable",
      "type": "function"
    }
  ],
  "bytecode": "0x60806040526000600a553480156200001657600080fd5b50604051806040016040528060098152602001685472696665636b746160b81b8152506040518060400160405280600381526020016254524960e81b8152508181620000716200006b620000b660201b60201c565b620000ba565b6001805581516200008a9060049060208501906200010a565b508051620000a09060059060208401906200010a565b5050601a805460ff1916905550620001ed915050565b3390565b600080546001600160a01b038381166001600160a01b0319831681178455604051919092169283917f8be0079c531659141344cd1fd0a4f28419497f9722a3daafe3b4186f6b6457e09190a35050565b8280546200011890620001b0565b90600052602060002090601f0160209004810192826200013c576000855562000187565b82601f106200015757805160ff191683800117855562000187565b8280016001018555821562000187579182015b82811115620001875782518255916020019190600101906200016a565b506200019592915062000199565b5090565b5b808211156200019557600081556001016200019a565b600181811c90821680620001c557607f821691505b60208210811415620001e757634e487b7160e01b600052602260045260246000fd5b50919050565b6151ea80620001fd6000396000f3fe608060405234801561001057600080fd5b50600436106102935760003560e01c806301ffc9a71461029857806302e7afb7146102c057806306fdde03146102d5578063081812fc146102ea578063095ea7b31461030a5780630ebd4c7f1461031d578063162094c41461033d57806320e4afe214610350578063239be3171461036357806323b872dd1461037657806324d7806c146103895780632928ca581461039c5780632d345670146103bd57806330176e13146103d05780633071a0f9146103e357806331ae450b146103f6578063332dd1ae1461040b57806338e52e781461041e5780633e6134b8146104315780633f0f37f6146104445780633f4ba83a1461045757806342842e0e1461045f57806342966c68146104725780635c975abb1461048557806361e5bc6b146104905780636352211e146104a357806366d1e9d0146104b65780636d73e669146104c957806370a08231146104dc578063715018a6146104ef57806372ff03d3146104f75780637884af441461050a5780637aa15f161461051d57806382dcc0c81461053057806383b7db63146105435780638456cb591461054b5780638da5cb5b1461055357806395d89b411461055b57806399e0dd7c14610563578063a22cb46514610576578063aafb2d4414610589578063ac0c8cfa1461059c578063ad2d0ddd146105af578063b0fe87c9146105c2578063b88d4fde146105d5578063b9c4d9fb146105e8578063bb3bafd614610608578063c155531d14610629578063c87b56dd1461064b578063ce8aee9d1461065e578063d5a06d4c14610608578063e00aab4b14610671578063e92a89f614610684578063e985e9c514610697578063f0cdc499146106aa578063f2fde38b146106bd578063fe2e1f58146106d0575b600080fd5b6102ab6102a63660046146f5565b6106e3565b60405190151581526020015b60405180910390f35b6102d36102ce366004614232565b610712565b005b6102dd610767565b6040516102b79190614c5a565b6102fd6102f836600461483c565b6107f9565b6040516102b79190614a93565b6102d361031836600461455e565b610881565b61033061032b36600461483c565b610992565b6040516102b79190614c47565b6102d361034b36600461488b565b610a18565b6102d361035e366004614855565b610a63565b6102fd61037136600461483c565b610adc565b6102d3610384366004614288565b610b0c565b6102ab610397366004614232565b610b3d565b6103af6103aa366004614232565b610b6c565b6040519081526020016102b7565b6102d36103cb366004614232565b610be0565b6102d36103de36600461472f565b610c64565b6102d36103f136600461447b565b610cae565b6103fe610d2a565b6040516102b79190614b3e565b6102d361041936600461458a565b610dd8565b61033061042c3660046143f9565b610e25565b6102d361043f36600461472f565b610f62565b6102d36104523660046144c2565b610f95565b6102d361100a565b6102d361046d366004614288565b611080565b6102d361048036600461483c565b61109b565b601a5460ff166102ab565b6102d361049e3660046145f5565b611141565b6102fd6104b136600461483c565b6111ec565b6102d36104c436600461472f565b611263565b6102d36104d7366004614232565b611294565b6103af6104ea366004614232565b611313565b6102d361139a565b6103af610505366004614232565b6113d5565b6103af61051836600461447b565b611458565b61033061052b3660046143f9565b61150e565b6102d361053e366004614770565b611658565b6103fe61168a565b6102d3611734565b6102fd6117a4565b6102dd6117b3565b6102d361057136600461472f565b6117c2565b6102d361058436600461444d565b61180c565b6102d36105973660046145f5565b6118cd565b6102d36105aa3660046146bb565b611991565b6103306105bd366004614529565b611ad7565b6102d36105d0366004614377565b611bf3565b6102d36105e33660046142c9565b611c40565b6105fb6105f636600461483c565b611c72565b6040516102b79190614c0f565b61061b61061636600461483c565b611d01565b6040516102b7929190614c22565b61063c6106373660046148bd565b611de5565b6040516102b793929190614b17565b6102dd61065936600461483c565b611e29565b6102d361066c366004614232565b611e59565b61033061067f366004614529565b611ea2565b6102d361069236600461488b565b611f9a565b6102ab6106a536600461424f565b611fcc565b6102d36106b836600461424f565b611ffa565b6102d36106cb366004614232565b612044565b6103af6106de36600461447b565b6120e1565b60006106ee82612172565b806106fd57506106fd82612197565b8061070c575061070c826121d2565b92915050565b3361071b6117a4565b6001600160a01b031614806107365750610736600233612207565b61075b5760405162461bcd60e51b815260040161075290614e14565b60405180910390fd5b61076481612223565b50565b60606004805461077690615047565b80601f01602080910402602001604051908101604052809291908181526020018280546107a290615047565b80156107ef5780601f106107c4576101008083540402835291602001916107ef565b820191906000526020600020905b8154815290600101906020018083116107d257829003601f168201915b5050505050905090565b60006108048261231c565b6108655760405162461bcd60e51b815260206004820152602c60248201527f4552433732313a20617070726f76656420717565727920666f72206e6f6e657860448201526b34b9ba32b73a103a37b5b2b760a11b6064820152608401610752565b506000908152600860205260409020546001600160a01b031690565b600061088c826111ec565b9050806001600160a01b0316836001600160a01b031614156108fa5760405162461bcd60e51b815260206004820152602160248201527f4552433732313a20617070726f76616c20746f2063757272656e74206f776e656044820152603960f91b6064820152608401610752565b336001600160a01b038216148061091657506109168133611fcc565b6109835760405162461bcd60e51b815260206004820152603860248201527f4552433732313a20617070726f76652063616c6c6572206973206e6f74206f776044820152771b995c881b9bdc88185c1c1c9bdd995908199bdc88185b1b60421b6064820152608401610752565b61098d8383612339565b505050565b606061099d8261231c565b6109b95760405162461bcd60e51b815260040161075290614cbf565b6109c2826123a7565b805480602002602001604051908101604052809291908181526020018280548015610a0c57602002820191906000526020600020905b8154815260200190600101908083116109f8575b50505050509050919050565b33610a216117a4565b6001600160a01b03161480610a3c5750610a3c600233612207565b610a585760405162461bcd60e51b815260040161075290614e14565b61098d838383612433565b33610a6c6117a4565b6001600160a01b03161480610a875750610a87600233612207565b610aa35760405162461bcd60e51b815260040161075290614e14565b610aac8561231c565b610ac85760405162461bcd60e51b815260040161075290614cbf565b610ad58585858585612482565b5050505050565b6000610ae78261231c565b610b035760405162461bcd60e51b815260040161075290614cbf565b61070c82612531565b610b1633826125d2565b610b325760405162461bcd60e51b815260040161075290614d8f565b61098d83838361269c565b6000816001600160a01b0316610b516117a4565b6001600160a01b0316148061070c575061070c600283612207565b600060026001541415610b915760405162461bcd60e51b815260040161075290614ece565b6002600155610ba1600b33612207565b610bbd5760405162461bcd60e51b815260040161075290614d46565b610bd68260405180602001604052806000815250612835565b6001805592915050565b33610be96117a4565b6001600160a01b031614610c0f5760405162461bcd60e51b815260040161075290614cea565b610c1a600282612207565b156107645760405133906001600160a01b038316907f7c0c3c84c67c85fcac635147348bfe374c24a1a93d0366d1cfe9d8853cbf89d590600090a3610c606002826128af565b5050565b33610c6d6117a4565b6001600160a01b03161480610c885750610c88600233612207565b610ca45760405162461bcd60e51b815260040161075290614e14565b610c6082826128c4565b33610cb76117a4565b6001600160a01b03161480610cd25750610cd2600233612207565b610cee5760405162461bcd60e51b815260040161075290614e14565b82610cfa600d82612207565b15610d175760405162461bcd60e51b815260040161075290614e8c565b610d2484848460006128de565b50505050565b6060610d3660026129e5565b6001600160401b03811115610d4d57610d4d615125565b604051908082528060200260200182016040528015610d76578160200160208202803683370190505b50905060005b610d8660026129e5565b811015610dd457610d986002826129ef565b828281518110610daa57610daa61510f565b6001600160a01b039092166020928302919091019091015280610dcc8161509e565b915050610d7c565b5090565b33610de16117a4565b6001600160a01b03161480610dfc5750610dfc600233612207565b610e185760405162461bcd60e51b815260040161075290614e14565b610d2430858585856129fb565b606060026001541415610e4a5760405162461bcd60e51b815260040161075290614ece565b6002600155610e5a600b33612207565b610e765760405162461bcd60e51b815260040161075290614d46565b816001600160401b03811115610e8e57610e8e615125565b604051908082528060200260200182016040528015610eb7578160200160208202803683370190505b50905060005b82811015610f5657610f2785858584818110610edb57610edb61510f565b9050602002810190610eed9190614f05565b8080601f01602080910402602001604051908101604052809392919081815260200183838082843760009201919091525061283592505050565b828281518110610f3957610f3961510f565b602090810291909101015280610f4e8161509e565b915050610ebd565b50600180559392505050565b610f6d600b33612207565b610f895760405162461bcd60e51b815260040161075290614d46565b610c6082826000612b0b565b33610f9e6117a4565b6001600160a01b03161480610fb95750610fb9600233612207565b610fd55760405162461bcd60e51b815260040161075290614e14565b83610fe1600d82612207565b15610ffe5760405162461bcd60e51b815260040161075290614e8c565b610ad5858585856128de565b6002600154141561102d5760405162461bcd60e51b815260040161075290614ece565b60026001553361103b6117a4565b6001600160a01b031614806110565750611056600233612207565b6110725760405162461bcd60e51b815260040161075290614e14565b61107a612b48565b60018055565b61098d83838360405180602001604052806000815250611c40565b600260015414156110be5760405162461bcd60e51b815260040161075290614ece565b60026001556110cd33826125d2565b6111195760405162461bcd60e51b815260206004820181905260248201527f63616c6c6572206973206e6f74206f776e6572206e6f7220617070726f7665646044820152606401610752565b6000611124826111ec565b905061112f82612bd5565b6111398183612c6a565b505060018055565b61114c600b33612207565b6111685760405162461bcd60e51b815260040161075290614d46565b825181146111885760405162461bcd60e51b815260040161075290614d1f565b60005b8351811015610d24576111da8482815181106111a9576111a961510f565b60200260200101518484848181106111c3576111c361510f565b90506020028101906111d59190614f05565b612d7e565b806111e48161509e565b91505061118b565b6000818152600660205260408120546001600160a01b03168061070c5760405162461bcd60e51b815260206004820152602960248201527f4552433732313a206f776e657220717565727920666f72206e6f6e657869737460448201526832b73a103a37b5b2b760b91b6064820152608401610752565b61126e600b33612207565b61128a5760405162461bcd60e51b815260040161075290614d46565b610c608282612db4565b3361129d6117a4565b6001600160a01b0316146112c35760405162461bcd60e51b815260040161075290614cea565b6112ce600282612207565b6107645760405133906001600160a01b038316907f7e1a1a08d52e4ba0e21554733d66165fd5151f99460116223d9e3a608eec5cb190600090a3610c60600282612dce565b60006001600160a01b03821661137e5760405162461bcd60e51b815260206004820152602a60248201527f4552433732313a2062616c616e636520717565727920666f7220746865207a65604482015269726f206164647265737360b01b6064820152608401610752565b506001600160a01b031660009081526007602052604090205490565b336113a36117a4565b6001600160a01b0316146113c95760405162461bcd60e51b815260040161075290614cea565b6113d36000612de3565b565b6000600260015414156113fa5760405162461bcd60e51b815260040161075290614ece565b6002600155336114086117a4565b6001600160a01b031614806114235750611423600233612207565b61143f5760405162461bcd60e51b815260040161075290614e14565b610bd68260405180602001604052806000815250612e33565b60006002600154141561147d5760405162461bcd60e51b815260040161075290614ece565b60026001553361148b6117a4565b6001600160a01b031614806114a657506114a6600233612207565b6114c25760405162461bcd60e51b815260040161075290614e14565b6115028484848080601f016020809104026020016040519081016040528093929190818152602001838380828437600092019190915250612e3392505050565b60018055949350505050565b6060600260015414156115335760405162461bcd60e51b815260040161075290614ece565b6002600155336115416117a4565b6001600160a01b0316148061155c575061155c600233612207565b6115785760405162461bcd60e51b815260040161075290614e14565b816001600160401b0381111561159057611590615125565b6040519080825280602002602001820160405280156115b9578160200160208202803683370190505b50905060005b82811015610f5657611629858585848181106115dd576115dd61510f565b90506020028101906115ef9190614f05565b8080601f016020809104026020016040519081016040528093929190818152602001838380828437600092019190915250612e3392505050565b82828151811061163b5761163b61510f565b6020908102919091010152806116508161509e565b9150506115bf565b611663600b33612207565b61167f5760405162461bcd60e51b815260040161075290614d46565b61098d838383612b0b565b6060611696600b6129e5565b6001600160401b038111156116ad576116ad615125565b6040519080825280602002602001820160405280156116d6578160200160208202803683370190505b50905060005b6116e6600b6129e5565b811015610dd4576116f8600b826129ef565b82828151811061170a5761170a61510f565b6001600160a01b03909216602092830291909101909101528061172c8161509e565b9150506116dc565b600260015414156117575760405162461bcd60e51b815260040161075290614ece565b6002600155336117656117a4565b6001600160a01b031614806117805750611780600233612207565b61179c5760405162461bcd60e51b815260040161075290614e14565b61107a612e76565b6000546001600160a01b031690565b60606005805461077690615047565b336117cb6117a4565b6001600160a01b031614806117e657506117e6600233612207565b6118025760405162461bcd60e51b815260040161075290614e14565b610c608282612ef1565b6001600160a01b0382163314156118615760405162461bcd60e51b815260206004820152601960248201527822a9219b99189d1030b8383937bb32903a379031b0b63632b960391b6044820152606401610752565b3360008181526009602090815260408083206001600160a01b03871680855290835292819020805460ff191686151590811790915590519081529192917f17307eab39ab6107e8899845ad3d59bd9653f200f220920489ca2b5937696c31910160405180910390a35050565b336118d66117a4565b6001600160a01b031614806118f157506118f1600233612207565b61190d5760405162461bcd60e51b815260040161075290614e14565b8251811461192d5760405162461bcd60e51b815260040161075290614d1f565b60005b8351811015610d245761197f84828151811061194e5761194e61510f565b60200260200101518484848181106119685761196861510f565b905060200281019061197a9190614f05565b612433565b806119898161509e565b915050611930565b61199c600b33612207565b6119b85760405162461bcd60e51b815260040161075290614d46565b8015806119d157506119d133634ce6d51160e11b612f0b565b611a655760405162461bcd60e51b815260206004820152605960248201527f45524337323143726561746f72436f72653a205265717569726573206578746560448201527f6e73696f6e20746f20696d706c656d656e74204945524337323143726561746f6064820152783922bc3a32b739b4b7b720b8383937bb32aa3930b739b332b960391b608482015260a401610752565b3360009081526010602052604090205460ff161515811515146107645733600081815260106020908152604091829020805460ff191685151590811790915591519182527f072a7592283e2c2d1d56d21517ff6013325e0f55483f4828373ff4d98b0a1a36910160405180910390a250565b606060026001541415611afc5760405162461bcd60e51b815260040161075290614ece565b600260015533611b0a6117a4565b6001600160a01b03161480611b255750611b25600233612207565b611b415760405162461bcd60e51b815260040161075290614e14565b8161ffff166001600160401b03811115611b5d57611b5d615125565b604051908082528060200260200182016040528015611b86578160200160208202803683370190505b50905060005b8261ffff168161ffff161015611be857611bb58460405180602001604052806000815250612e33565b828261ffff1681518110611bcb57611bcb61510f565b602090810291909101015280611be08161507c565b915050611b8c565b506001805592915050565b33611bfc6117a4565b6001600160a01b03161480611c175750611c17600233612207565b611c335760405162461bcd60e51b815260040161075290614e14565b610ad585858585856129fb565b611c4a33836125d2565b611c665760405162461bcd60e51b815260040161075290614d8f565b610d2484848484612f27565b6060611c7d8261231c565b611c995760405162461bcd60e51b815260040161075290614cbf565b611ca282612f5a565b805480602002602001604051908101604052809291908181526020018280548015610a0c57602002820191906000526020600020905b81546001600160a01b03168152600190910190602001808311611cd85750505050509050919050565b606080611d0d8361231c565b611d295760405162461bcd60e51b815260040161075290614cbf565b611d3283612fe6565b815460408051602080840282018101909252828152918491830182828015611d8357602002820191906000526020600020905b81546001600160a01b03168152600190910190602001808311611d65575b5050505050915080805480602002602001604051908101604052809291908181526020018280548015611dd557602002820191906000526020600020905b815481526020019060010190808311611dc1575b5050505050905091509150915091565b6000806060611df38761231c565b611e0f5760405162461bcd60e51b815260040161075290614cbf565b611e198787613004565b9250925092509450945094915050565b6060611e348261231c565b611e505760405162461bcd60e51b815260040161075290614cbf565b61070c82613117565b33611e626117a4565b6001600160a01b03161480611e7d5750611e7d600233612207565b611e995760405162461bcd60e51b815260040161075290614e14565b610764816133a0565b606060026001541415611ec75760405162461bcd60e51b815260040161075290614ece565b6002600155611ed7600b33612207565b611ef35760405162461bcd60e51b815260040161075290614d46565b8161ffff166001600160401b03811115611f0f57611f0f615125565b604051908082528060200260200182016040528015611f38578160200160208202803683370190505b50905060005b8261ffff168161ffff161015611be857611f678460405180602001604052806000815250612835565b828261ffff1681518110611f7d57611f7d61510f565b602090810291909101015280611f928161507c565b915050611f3e565b611fa5600b33612207565b611fc15760405162461bcd60e51b815260040161075290614d46565b61098d838383612d7e565b6001600160a01b03918216600090815260096020908152604080832093909416825291909152205460ff1690565b336120036117a4565b6001600160a01b0316148061201e575061201e600233612207565b61203a5760405162461bcd60e51b815260040161075290614e14565b610c6082826133df565b3361204d6117a4565b6001600160a01b0316146120735760405162461bcd60e51b815260040161075290614cea565b6001600160a01b0381166120d85760405162461bcd60e51b815260206004820152602660248201527f4f776e61626c653a206e6577206f776e657220697320746865207a65726f206160448201526564647265737360d01b6064820152608401610752565b61076481612de3565b6000600260015414156121065760405162461bcd60e51b815260040161075290614ece565b6002600155612116600b33612207565b6121325760405162461bcd60e51b815260040161075290614d46565b6115028484848080601f01602080910402602001604051908101604052809392919081815260200183838082843760009201919091525061283592505050565b60006001600160e01b03198216630ae5685960e21b148061070c575061070c8261352d565b60006001600160e01b031982166380ac58cd60e01b14806106fd57506001600160e01b03198216635b5e139f60e01b148061070c575061070c825b60006001600160e01b03198216632a9f3abf60e11b148061070c57506301ffc9a760e01b6001600160e01b031983161461070c565b600061221c836001600160a01b0384166135c3565b9392505050565b6001600160a01b03811630141561228b5760405162461bcd60e51b815260206004820152602660248201527f43726561746f72436f72653a2043616e6e6f7420626c61636b6c69737420796f6044820152653ab939b2b63360d11b6064820152608401610752565b612296600b82612207565b156122cc5760405133906001600160a01b0383169060008051602061517583398151915290600090a36122ca600b826128af565b505b6122d7600d82612207565b6107645760405133906001600160a01b038316907f05ac7bc5a606cd92a63365f9fda244499b9add0526b22d99937b6bd88181059c90600090a3610c60600d82612dce565b6000908152600660205260409020546001600160a01b0316151590565b600081815260086020526040902080546001600160a01b0319166001600160a01b038416908117909155819061236e826111ec565b6001600160a01b03167f8c5be1e5ebec7d5bd14f71427d1e84f3dd0314c0f7b2291e5b200ac8c7c3b92560405160405180910390a45050565b600081815260196020526040812054156123cd5750600090815260196020526040902090565b6000828152601160209081526040808320546001600160a01b0316835260179091529020541561241f57506000908152601160209081526040808320546001600160a01b031683526017909152902090565b505030600090815260176020526040902090565b6000838152601160205260409020546001600160a01b031630146124695760405162461bcd60e51b815260040161075290614de0565b6000838152601560205260409020610d24908383614067565b8281146124a15760405162461bcd60e51b815260040161075290614e58565b600085815260186020908152604080832060199092529091206124c59190856135db565b600085815260186020908152604080832060199092529091206124ec91908686868661367c565b847fabb46fe0761d77584bde75697647804ffd8113abd4d8d06bc664150395eccdee858585856040516125229493929190614b8b565b60405180910390a25050505050565b6000818152601160205260409020546001600160a01b0316308114156125a55760405162461bcd60e51b815260206004820152602360248201527f43726561746f72436f72653a204e6f20657874656e73696f6e20666f7220746f60448201526235b2b760e91b6064820152608401610752565b6125b0600d82612207565b156125cd5760405162461bcd60e51b815260040161075290614e8c565b919050565b60006125dd8261231c565b61263e5760405162461bcd60e51b815260206004820152602c60248201527f4552433732313a206f70657261746f7220717565727920666f72206e6f6e657860448201526b34b9ba32b73a103a37b5b2b760a11b6064820152608401610752565b6000612649836111ec565b9050806001600160a01b0316846001600160a01b031614806126845750836001600160a01b0316612679846107f9565b6001600160a01b0316145b8061269457506126948185611fcc565b949350505050565b826001600160a01b03166126af826111ec565b6001600160a01b0316146127175760405162461bcd60e51b815260206004820152602960248201527f4552433732313a207472616e73666572206f6620746f6b656e2074686174206960448201526839903737ba1037bbb760b91b6064820152608401610752565b6001600160a01b0382166127795760405162461bcd60e51b8152602060048201526024808201527f4552433732313a207472616e7366657220746f20746865207a65726f206164646044820152637265737360e01b6064820152608401610752565b6127848383836138a3565b61278f600082612339565b6001600160a01b03831660009081526007602052604081208054600192906127b8908490614fed565b90915550506001600160a01b03821660009081526007602052604081208054600192906127e6908490614fa2565b909155505060008181526006602052604080822080546001600160a01b0319166001600160a01b03868116918217909255915184939187169160008051602061519583398151915291a4505050565b600a8054600091826128468361509e565b9190505550600a54905061285a83826138ae565b600081815260116020526040902080546001600160a01b031916331790556128828382613943565b8151156128aa57600081815260156020908152604090912083516128a8928501906140e7565b505b61070c565b600061221c836001600160a01b03841661395d565b30600090815260126020526040902061098d908383614067565b6128ef84637005caad60e01b612f0b565b61295b5760405162461bcd60e51b815260206004820152603760248201527f43726561746f723a20457874656e73696f6e206d75737420696d706c656d656e60448201527674204943726561746f72457874656e73696f6e4261736560481b6064820152608401610752565b612966600b85612207565b610d24576001600160a01b038416600090815260126020526040902061298d908484614067565b506001600160a01b038416600081815260136020526040808220805460ff1916851515179055513392917fd8cb8ba4086944eabf43c5535b7712015e4d4c714b24bf812c040ea5b7a3e42a91a3610ad5600b85612dce565b600061070c825490565b600061221c8383613a50565b828114612a1a5760405162461bcd60e51b815260040161075290614e58565b6001600160a01b03851660009081526016602090815260408083206017909252909120612a489190856135db565b6001600160a01b03851660009081526016602090815260408083206017909252909120612a7991908686868661367c565b6001600160a01b038516301415612acc577f2b6849d5976d799a5b0ca4dfd6b40a3d7afe9ea72c091fa01a958594f9a2659b84848484604051612abf9493929190614b8b565b60405180910390a1610ad5565b846001600160a01b03167f535a93d2cb000582c0ebeaa9be4890ec6a287f98eb2df00c54c300612fd78d8f858585856040516125229493929190614b8b565b336000908152601260205260409020612b25908484614067565b50336000908152601360205260409020805460ff19169115159190911790555050565b601a5460ff16612b915760405162461bcd60e51b815260206004820152601460248201527314185d5cd8589b194e881b9bdd081c185d5cd95960621b6044820152606401610752565b601a805460ff191690557f5db9ee0a495bf2e6ff9c91a7834c1ba4fdd244a5e8aa4e537bd38aeae4b073aa335b604051612bcb9190614a93565b60405180910390a1565b6000612be0826111ec565b9050612bee816000846138a3565b612bf9600083612339565b6001600160a01b0381166000908152600760205260408120805460019290612c22908490614fed565b909155505060008281526006602052604080822080546001600160a01b0319169055518391906001600160a01b03841690600080516020615195833981519152908390a45050565b6000818152601160205260409020546001600160a01b03163014612d2857600081815260116020526040902054612cb1906001600160a01b031663f3f4e68b60e01b612f0b565b15612d2857600081815260116020526040908190205490516311686e4b60e21b81526001600160a01b03909116906345a1b92c90612cf59085908590600401614afe565b600060405180830381600087803b158015612d0f57600080fd5b505af1158015612d23573d6000803e3d6000fd5b505050505b60008181526015602052604090208054612d4190615047565b159050612d5f576000818152601560205260408120612d5f9161415b565b600090815260116020526040902080546001600160a01b031916905550565b6000838152601160205260409020546001600160a01b031633146124695760405162461bcd60e51b815260040161075290614de0565b33600090815260146020526040902061098d908383614067565b600061221c836001600160a01b038416613a7a565b600080546001600160a01b038381166001600160a01b0319831681178455604051919092169283917f8be0079c531659141344cd1fd0a4f28419497f9722a3daafe3b4186f6b6457e09190a35050565b600a805460009182612e448361509e565b9091555050600a54600081815260116020526040902080546001600160a01b0319163017905590506128828382613943565b601a5460ff1615612ebc5760405162461bcd60e51b815260206004820152601060248201526f14185d5cd8589b194e881c185d5cd95960821b6044820152606401610752565b601a805460ff191660011790557f62e78cea01bee320cd4e420270b5ea74000d11b0c9f74754ebdbfc544b05a258612bbe3390565b30600090815260146020526040902061098d908383614067565b6000612f1683613ac4565b801561221c575061221c8383613af7565b612f3284848461269c565b612f3e84848484613be0565b610d245760405162461bcd60e51b815260040161075290614c6d565b60008181526018602052604081205415612f805750600090815260186020526040902090565b6000828152601160209081526040808320546001600160a01b03168352601690915290205415612fd257506000908152601160209081526040808320546001600160a01b031683526016909152902090565b505030600090815260166020526040902090565b600080612ff283612f5a565b612ffb846123a7565b91509150915091565b6000806060600061301486612f5a565b805490915060011015613091576040805162461bcd60e51b81526020600482015260248101919091527f43726561746f72436f72653a204f6e6c7920776f726b7320696620746865726560448201527f20617265206174206d6f7374203120726f79616c7479207265636569766572736064820152608401610752565b80546130a4573060009350935050613110565b806000815481106130b7576130b761510f565b6000918252602090912001546001600160a01b0316612710866130d9896123a7565b6000815481106130eb576130eb61510f565b90600052602060002001546131009190614fce565b61310a9190614fba565b93509350505b9250925092565b6000818152601160205260409020546060906001600160a01b031661313d600d82612207565b1561315a5760405162461bcd60e51b815260040161075290614e8c565b6000838152601560205260409020805461317390615047565b15905061328d576001600160a01b0381166000908152601460205260409020805461319d90615047565b1590506131ee576001600160a01b0381166000908152601460209081526040808320868452601583529281902090516131d7939201614a7e565b604051602081830303815290604052915050919050565b6000838152601560205260409020805461320790615047565b80601f016020809104026020016040519081016040528092919081815260200182805461323390615047565b80156132805780601f1061325557610100808354040283529160200191613280565b820191906000526020600020905b81548152906001019060200180831161326357829003601f168201915b5050505050915050919050565b61329e8163e9dc637560e01b612f0b565b156133255760405163e9dc637560e01b81526001600160a01b0382169063e9dc6375906132d19030908790600401614afe565b60006040518083038186803b1580156132e957600080fd5b505afa1580156132fd573d6000803e3d6000fd5b505050506040513d6000823e601f3d908101601f1916820160405261221c91908101906147c6565b6001600160a01b03811660009081526013602052604090205460ff16613377576001600160a01b038116600090815260126020526040902061336684613ced565b6040516020016131d7929190614a59565b6001600160a01b0381166000908152601260205260409020805461320790615047565b50919050565b6133ab600b82612207565b156107645760405133906001600160a01b0383169060008051602061517583398151915290600090a3610c60600b826128af565b6133ea600b83612207565b6134365760405162461bcd60e51b815260206004820152601e60248201527f43726561746f72436f72653a20496e76616c696420657874656e73696f6e00006044820152606401610752565b6001600160a01b0381161580613458575061345881631e05385b60e31b612f0b565b6134af5760405162461bcd60e51b815260206004820152602260248201527f45524337323143726561746f72436f72653a20496e76616c6964206164647265604482015261737360f01b6064820152608401610752565b6001600160a01b038281166000908152600f6020526040902054811690821614610c60576001600160a01b038281166000818152600f602052604080822080546001600160a01b031916948616948517905551339392917f6a835c4fcf7e0d398db3762332fdaa1471814ad39f1e2d6d0b3fdabf8efee3e091a45050565b60006001600160e01b031982166361f8bcb360e11b1480613552575061355282612197565b8061356d57506001600160e01b03198216635d9dd7eb60e11b145b8061358857506001600160e01b03198216636057361d60e01b145b806135a357506001600160e01b031982166335681b5360e21b145b8061070c57506001600160e01b03198216636057361d60e01b1492915050565b60009081526001919091016020526040902054151590565b81548354146135fc5760405162461bcd60e51b815260040161075290614e58565b825481101561098d5782545b81811115610d245783805480613620576136206150f9565b600082815260209020810160001990810180546001600160a01b03191690550190558254839080613653576136536150f9565b60019003818190600052602060002001600090559055808061367490615030565b915050613608565b845486541461369d5760405162461bcd60e51b815260040161075290614e58565b8281146136bc5760405162461bcd60e51b815260040161075290614e58565b6000805b8481101561383c578754811015613774578585828181106136e3576136e361510f565b90506020020160208101906136f89190614232565b88828154811061370a5761370a61510f565b9060005260206000200160006101000a8154816001600160a01b0302191690836001600160a01b0316021790555083838281811061374a5761374a61510f565b905060200201358782815481106137635761376361510f565b600091825260209091200155613804565b878686838181106137875761378761510f565b905060200201602081019061379c9190614232565b81546001810183556000928352602090922090910180546001600160a01b0319166001600160a01b03909216919091179055868484838181106137e1576137e161510f565b835460018101855560009485526020948590209190940292909201359190920155505b8383828181106138165761381661510f565b90506020020135826138289190614fa2565b9150806138348161509e565b9150506136c0565b50612710811061389a5760405162461bcd60e51b8152602060048201526024808201527f43726561746f72436f72653a20496e76616c696420746f74616c20726f79616c6044820152637469657360e01b6064820152608401610752565b50505050505050565b61098d838383613dea565b336000908152600f60205260409020546001600160a01b031615610c6057336000818152600f602052604090819020549051631e05385b60e31b81526001600160a01b039091169163f029c2d89161390d919086908690600401614aa7565b600060405180830381600087803b15801561392757600080fd5b505af115801561393b573d6000803e3d6000fd5b505050505050565b610c60828260405180602001604052806000815250613f08565b60008181526001830160205260408120548015613a46576000613981600183614fed565b855490915060009061399590600190614fed565b90508181146139fa5760008660000182815481106139b5576139b561510f565b90600052602060002001549050808760000184815481106139d8576139d861510f565b6000918252602080832090910192909255918252600188019052604090208390555b8554869080613a0b57613a0b6150f9565b60019003818190600052602060002001600090559055856001016000868152602001908152602001600020600090556001935050505061070c565b600091505061070c565b6000826000018281548110613a6757613a6761510f565b9060005260206000200154905092915050565b6000613a8683836135c3565b613abc5750815460018181018455600084815260208082209093018490558454848252828601909352604090209190915561070c565b50600061070c565b6000613ad7826301ffc9a760e01b613af7565b801561070c5750613af0826001600160e01b0319613af7565b1592915050565b604080516001600160e01b0319831660248083019190915282518083039091018152604490910182526020810180516001600160e01b03166301ffc9a760e01b179052905160009190829081906001600160a01b0387169061753090613b5e908690614a3d565b6000604051808303818686fa925050503d8060008114613b9a576040519150601f19603f3d011682016040523d82523d6000602084013e613b9f565b606091505b5091509150602081511015613bba576000935050505061070c565b818015613bd6575080806020019051810190613bd691906146d8565b9695505050505050565b60006001600160a01b0384163b15613ce257604051630a85bd0160e11b81526001600160a01b0385169063150b7a0290613c24903390899088908890600401614acb565b602060405180830381600087803b158015613c3e57600080fd5b505af1925050508015613c6e575060408051601f3d908101601f19168201909252613c6b91810190614712565b60015b613cc8573d808015613c9c576040519150601f19603f3d011682016040523d82523d6000602084013e613ca1565b606091505b508051613cc05760405162461bcd60e51b815260040161075290614c6d565b805181602001fd5b6001600160e01b031916630a85bd0160e11b149050612694565b506001949350505050565b606081613d115750506040805180820190915260018152600360fc1b602082015290565b8160005b8115613d3b5780613d258161509e565b9150613d349050600a83614fba565b9150613d15565b6000816001600160401b03811115613d5557613d55615125565b6040519080825280601f01601f191660200182016040528015613d7f576020820181803683370190505b5090505b841561269457613d94600183614fed565b9150613da1600a866150b9565b613dac906030614fa2565b60f81b818381518110613dc157613dc161510f565b60200101906001600160f81b031916908160001a905350613de3600a86614fba565b9450613d83565b6000818152601160209081526040808320546001600160a01b03168352601090915290205460ff161561098d5760008181526011602052604090819020549051638258080560e01b81526001600160a01b0390911690638258080590613e5890869086908690600401614aa7565b602060405180830381600087803b158015613e7257600080fd5b505af1158015613e86573d6000803e3d6000fd5b505050506040513d601f19601f82011682018060405250810190613eaa91906146d8565b61098d5760405162461bcd60e51b815260206004820152602960248201527f45524337323143726561746f723a20457874656e73696f6e20617070726f76616044820152686c206661696c75726560b81b6064820152608401610752565b613f128383613f3b565b613f1f6000848484613be0565b61098d5760405162461bcd60e51b815260040161075290614c6d565b6001600160a01b038216613f915760405162461bcd60e51b815260206004820181905260248201527f4552433732313a206d696e7420746f20746865207a65726f20616464726573736044820152606401610752565b613f9a8161231c565b15613fe65760405162461bcd60e51b815260206004820152601c60248201527b115490cdcc8c4e881d1bdad95b88185b1c9958591e481b5a5b9d195960221b6044820152606401610752565b613ff2600083836138a3565b6001600160a01b038216600090815260076020526040812080546001929061401b908490614fa2565b909155505060008181526006602052604080822080546001600160a01b0319166001600160a01b0386169081179091559051839290600080516020615195833981519152908290a45050565b82805461407390615047565b90600052602060002090601f01602090048101928261409557600085556140db565b82601f106140ae5782800160ff198235161785556140db565b828001600101855582156140db579182015b828111156140db5782358255916020019190600101906140c0565b50610dd4929150614191565b8280546140f390615047565b90600052602060002090601f01602090048101928261411557600085556140db565b82601f1061412e57805160ff19168380011785556140db565b828001600101855582156140db579182015b828111156140db578251825591602001919060010190614140565b50805461416790615047565b6000825580601f10614177575050565b601f01602090049060005260206000209081019061076491905b5b80821115610dd45760008155600101614192565b60008083601f8401126141b857600080fd5b5081356001600160401b038111156141cf57600080fd5b6020830191508360208260051b85010111156141ea57600080fd5b9250929050565b60008083601f84011261420357600080fd5b5081356001600160401b0381111561421a57600080fd5b6020830191508360208285010111156141ea57600080fd5b60006020828403121561424457600080fd5b813561221c8161513b565b6000806040838503121561426257600080fd5b823561426d8161513b565b9150602083013561427d8161513b565b809150509250929050565b60008060006060848603121561429d57600080fd5b83356142a88161513b565b925060208401356142b88161513b565b929592945050506040919091013590565b600080600080608085870312156142df57600080fd5b84356142ea8161513b565b935060208501356142fa8161513b565b92506040850135915060608501356001600160401b0381111561431c57600080fd5b8501601f8101871361432d57600080fd5b803561434061433b82614f7b565b614f4b565b81815288602083850101111561435557600080fd5b8160208401602083013760006020838301015280935050505092959194509250565b60008060008060006060868803121561438f57600080fd5b853561439a8161513b565b945060208601356001600160401b03808211156143b657600080fd5b6143c289838a016141a6565b909650945060408801359150808211156143db57600080fd5b506143e8888289016141a6565b969995985093965092949392505050565b60008060006040848603121561440e57600080fd5b83356144198161513b565b925060208401356001600160401b0381111561443457600080fd5b614440868287016141a6565b9497909650939450505050565b6000806040838503121561446057600080fd5b823561446b8161513b565b9150602083013561427d81615150565b60008060006040848603121561449057600080fd5b833561449b8161513b565b925060208401356001600160401b038111156144b657600080fd5b614440868287016141f1565b600080600080606085870312156144d857600080fd5b84356144e38161513b565b935060208501356001600160401b038111156144fe57600080fd5b61450a878288016141f1565b909450925050604085013561451e81615150565b939692955090935050565b6000806040838503121561453c57600080fd5b82356145478161513b565b9150602083013561ffff8116811461427d57600080fd5b6000806040838503121561457157600080fd5b823561457c8161513b565b946020939093013593505050565b600080600080604085870312156145a057600080fd5b84356001600160401b03808211156145b757600080fd5b6145c3888389016141a6565b909650945060208701359150808211156145dc57600080fd5b506145e9878288016141a6565b95989497509550505050565b60008060006040848603121561460a57600080fd5b83356001600160401b038082111561462157600080fd5b818601915086601f83011261463557600080fd5b813560208282111561464957614649615125565b8160051b614658828201614f4b565b8381528281019086840183880185018d101561467357600080fd5b600097505b85881015614696578035835260019790970196918401918401614678565b5098505050870135925050808211156146ae57600080fd5b50614440868287016141a6565b6000602082840312156146cd57600080fd5b813561221c81615150565b6000602082840312156146ea57600080fd5b815161221c81615150565b60006020828403121561470757600080fd5b813561221c8161515e565b60006020828403121561472457600080fd5b815161221c8161515e565b6000806020838503121561474257600080fd5b82356001600160401b0381111561475857600080fd5b614764858286016141f1565b90969095509350505050565b60008060006040848603121561478557600080fd5b83356001600160401b0381111561479b57600080fd5b6147a7868287016141f1565b90945092505060208401356147bb81615150565b809150509250925092565b6000602082840312156147d857600080fd5b81516001600160401b038111156147ee57600080fd5b8201601f810184136147ff57600080fd5b805161480d61433b82614f7b565b81815285602083850101111561482257600080fd5b614833826020830160208601615004565b95945050505050565b60006020828403121561484e57600080fd5b5035919050565b60008060008060006060868803121561486d57600080fd5b8535945060208601356001600160401b03808211156143b657600080fd5b6000806000604084860312156148a057600080fd5b8335925060208401356001600160401b038111156144b657600080fd5b600080600080606085870312156148d357600080fd5b843593506020850135925060408501356001600160401b038111156148f757600080fd5b6145e9878288016141f1565b600081518084526020808501945080840160005b8381101561493c5781516001600160a01b031687529582019590820190600101614917565b509495945050505050565b600081518084526020808501945080840160005b8381101561493c5781518752958201959082019060010161495b565b6000815180845261498f816020860160208601615004565b601f01601f19169290920160200192915050565b8054600090600181811c90808316806149bd57607f831692505b60208084108214156149df57634e487b7160e01b600052602260045260246000fd5b8180156149f35760018114614a0457614a31565b60ff19861689528489019650614a31565b60008881526020902060005b86811015614a295781548b820152908501908301614a10565b505084890196505b50505050505092915050565b60008251614a4f818460208701615004565b9190910192915050565b6000614a6582856149a3565b8351614a75818360208801615004565b01949350505050565b6000612694614a8d83866149a3565b846149a3565b6001600160a01b0391909116815260200190565b6001600160a01b039384168152919092166020820152604081019190915260600190565b6001600160a01b0385811682528416602082015260408101839052608060608201819052600090613bd690830184614977565b6001600160a01b03929092168252602082015260400190565b60018060a01b03841681528260208201526060604082015260006148336060830184614977565b6020808252825182820181905260009190848201906040850190845b81811015614b7f5783516001600160a01b031683529284019291840191600101614b5a565b50909695505050505050565b6040808252810184905260008560608301825b87811015614bce578235614bb18161513b565b6001600160a01b0316825260209283019290910190600101614b9e565b5083810360208501528481526001600160fb1b03851115614bee57600080fd5b8460051b915081866020830137600091016020019081529695505050505050565b60208152600061221c6020830184614903565b604081526000614c356040830185614903565b82810360208401526148338185614947565b60208152600061221c6020830184614947565b60208152600061221c6020830184614977565b60208082526032908201527f4552433732313a207472616e7366657220746f206e6f6e20455243373231526560408201527131b2b4bb32b91034b6b83632b6b2b73a32b960711b606082015260800190565b6020808252601190820152702737b732bc34b9ba32b73a103a37b5b2b760791b604082015260600190565b6020808252818101527f4f776e61626c653a2063616c6c6572206973206e6f7420746865206f776e6572604082015260600190565b6020808252600d908201526c125b9d985b1a59081a5b9c1d5d609a1b604082015260600190565b60208082526029908201527f43726561746f72436f72653a204d75737420626520726567697374657265642060408201526832bc3a32b739b4b7b760b91b606082015260800190565b60208082526031908201527f4552433732313a207472616e736665722063616c6c6572206973206e6f74206f6040820152701ddb995c881b9bdc88185c1c1c9bdd9959607a1b606082015260800190565b6020808252601a908201527921b932b0ba37b921b7b9329d1024b73b30b634b2103a37b5b2b760311b604082015260600190565b60208082526024908201527f41646d696e436f6e74726f6c3a204d757374206265206f776e6572206f7220616040820152633236b4b760e11b606082015260800190565b6020808252601a908201527910dc99585d1bdc90dbdc994e88125b9d985b1a59081a5b9c1d5d60321b604082015260600190565b60208082526022908201527f43726561746f72436f72653a20457874656e73696f6e20626c61636b6c697374604082015261195960f21b606082015260800190565b6020808252601f908201527f5265656e7472616e637947756172643a207265656e7472616e742063616c6c00604082015260600190565b6000808335601e19843603018112614f1c57600080fd5b8301803591506001600160401b03821115614f3657600080fd5b6020019150368190038213156141ea57600080fd5b604051601f8201601f191681016001600160401b0381118282101715614f7357614f73615125565b604052919050565b60006001600160401b03821115614f9457614f94615125565b50601f01601f191660200190565b60008219821115614fb557614fb56150cd565b500190565b600082614fc957614fc96150e3565b500490565b6000816000190483118215151615614fe857614fe86150cd565b500290565b600082821015614fff57614fff6150cd565b500390565b60005b8381101561501f578181015183820152602001615007565b83811115610d245750506000910152565b60008161503f5761503f6150cd565b506000190190565b600181811c9082168061505b57607f821691505b6020821081141561339a57634e487b7160e01b600052602260045260246000fd5b600061ffff80831681811415615094576150946150cd565b6001019392505050565b60006000198214156150b2576150b26150cd565b5060010190565b6000826150c8576150c86150e3565b500690565b634e487b7160e01b600052601160045260246000fd5b634e487b7160e01b600052601260045260246000fd5b634e487b7160e01b600052603160045260246000fd5b634e487b7160e01b600052603260045260246000fd5b634e487b7160e01b600052604160045260246000fd5b6001600160a01b038116811461076457600080fd5b801515811461076457600080fd5b6001600160e01b03198116811461076457600080fdfed19cf84cf0fec6bec9ddfa29c63adf83a55707c712f32c8285d6180a78901479ddf252ad1be2c89b69c2b068fc378daa952ba7f163c4a11628f55a4df523b3efa2646970667358221220233717b32432afc2a604789529ae99410cdfd3df563fd19318b5bdc10506f30264736f6c63430008060033",
  "linkReferences": {},
  "deployedLinkReferences": {}
}